{
  "contractName": "AgriManager",
  "abi": [
    {
      "anonymous": false,
      "inputs": [
        {
          "indexed": true,
          "internalType": "uint256",
          "name": "id",
          "type": "uint256"
        },
        {
          "indexed": true,
          "internalType": "uint256",
          "name": "farmId",
          "type": "uint256"
        },
        {
          "indexed": false,
          "internalType": "string",
          "name": "cropType",
          "type": "string"
        },
        {
          "indexed": false,
          "internalType": "uint256",
          "name": "quantity",
          "type": "uint256"
        },
        {
          "indexed": false,
          "internalType": "uint256",
          "name": "plantedAt",
          "type": "uint256"
        }
      ],
      "name": "CropAdded",
      "type": "event"
    },
    {
      "anonymous": false,
      "inputs": [
        {
          "indexed": true,
          "internalType": "uint256",
          "name": "id",
          "type": "uint256"
        },
        {
          "indexed": false,
          "internalType": "string",
          "name": "owner",
          "type": "string"
        },
        {
          "indexed": false,
          "internalType": "string",
          "name": "name",
          "type": "string"
        },
        {
          "indexed": false,
          "internalType": "string",
          "name": "location",
          "type": "string"
        },
        {
          "indexed": false,
          "internalType": "uint256",
          "name": "createdAt",
          "type": "uint256"
        }
      ],
      "name": "FarmAdded",
      "type": "event"
    },
    {
      "anonymous": false,
      "inputs": [
        {
          "indexed": true,
          "internalType": "uint256",
          "name": "txId",
          "type": "uint256"
        },
        {
          "indexed": true,
          "internalType": "address",
          "name": "by",
          "type": "address"
        },
        {
          "indexed": false,
          "internalType": "string",
          "name": "action",
          "type": "string"
        },
        {
          "indexed": false,
          "internalType": "uint256",
          "name": "timestamp",
          "type": "uint256"
        }
      ],
      "name": "TransactionRecorded",
      "type": "event"
    },
    {
      "inputs": [],
      "name": "cropCount",
      "outputs": [
        {
          "internalType": "uint256",
          "name": "",
          "type": "uint256"
        }
      ],
      "stateMutability": "view",
      "type": "function",
      "constant": true
    },
    {
      "inputs": [
        {
          "internalType": "uint256",
          "name": "",
          "type": "uint256"
        }
      ],
      "name": "crops",
      "outputs": [
        {
          "internalType": "uint256",
          "name": "id",
          "type": "uint256"
        },
        {
          "internalType": "uint256",
          "name": "farmId",
          "type": "uint256"
        },
        {
          "internalType": "string",
          "name": "cropType",
          "type": "string"
        },
        {
          "internalType": "uint256",
          "name": "quantity",
          "type": "uint256"
        },
        {
          "internalType": "uint256",
          "name": "plantedAt",
          "type": "uint256"
        }
      ],
      "stateMutability": "view",
      "type": "function",
      "constant": true
    },
    {
      "inputs": [],
      "name": "farmCount",
      "outputs": [
        {
          "internalType": "uint256",
          "name": "",
          "type": "uint256"
        }
      ],
      "stateMutability": "view",
      "type": "function",
      "constant": true
    },
    {
      "inputs": [
        {
          "internalType": "uint256",
          "name": "",
          "type": "uint256"
        }
      ],
      "name": "farms",
      "outputs": [
        {
          "internalType": "uint256",
          "name": "id",
          "type": "uint256"
        },
        {
          "internalType": "string",
          "name": "owner",
          "type": "string"
        },
        {
          "internalType": "string",
          "name": "name",
          "type": "string"
        },
        {
          "internalType": "string",
          "name": "location",
          "type": "string"
        },
        {
          "internalType": "uint256",
          "name": "createdAt",
          "type": "uint256"
        }
      ],
      "stateMutability": "view",
      "type": "function",
      "constant": true
    },
    {
      "inputs": [
        {
          "internalType": "string",
          "name": "_owner",
          "type": "string"
        },
        {
          "internalType": "string",
          "name": "_name",
          "type": "string"
        },
        {
          "internalType": "string",
          "name": "_location",
          "type": "string"
        }
      ],
      "name": "addFarm",
      "outputs": [
        {
          "internalType": "uint256",
          "name": "",
          "type": "uint256"
        }
      ],
      "stateMutability": "nonpayable",
      "type": "function"
    },
    {
      "inputs": [
        {
          "internalType": "uint256",
          "name": "_farmId",
          "type": "uint256"
        },
        {
          "internalType": "string",
          "name": "_cropType",
          "type": "string"
        },
        {
          "internalType": "uint256",
          "name": "_quantity",
          "type": "uint256"
        }
      ],
      "name": "addCrop",
      "outputs": [
        {
          "internalType": "uint256",
          "name": "",
          "type": "uint256"
        }
      ],
      "stateMutability": "nonpayable",
      "type": "function"
    },
    {
      "inputs": [
        {
          "internalType": "string",
          "name": "action",
          "type": "string"
        }
      ],
      "name": "recordTransaction",
      "outputs": [
        {
          "internalType": "uint256",
          "name": "",
          "type": "uint256"
        }
      ],
      "stateMutability": "nonpayable",
      "type": "function"
    }
  ],
  "bytecode": "0x608060405234801561001057600080fd5b50611023806100206000396000f3fe608060405234801561001057600080fd5b506004361061007d5760003560e01c806370c9f1a51161005b57806370c9f1a5146101005780637da470ea14610134578063dfd55a2c14610168578063f4c5773d146101865761007d565b80630a8e214c146100825780633ab592dd146100a05780633b6db45e146100d0575b600080fd5b61008a6101b6565b60405161009791906106f6565b60405180910390f35b6100ba60048036038101906100b5919061086b565b6101bc565b6040516100c791906106f6565b60405180910390f35b6100ea60048036038101906100e591906108e0565b61021c565b6040516100f791906106f6565b60405180910390f35b61011a6004803603810190610115919061094f565b610350565b60405161012b9594939291906109fb565b60405180910390f35b61014e6004803603810190610149919061094f565b61040e565b60405161015f959493929190610a55565b60405180910390f35b6101706105dc565b60405161017d91906106f6565b60405180910390f35b6101a0600480360381019061019b9190610abd565b6105e2565b6040516101ad91906106f6565b60405180910390f35b60005481565b6000804290503373ffffffffffffffffffffffffffffffffffffffff16817f7a93e91e4a1592529aebfb2acfadf5658468b676b48ceb45365943ff7559c1e9854260405161020b929190610b64565b60405180910390a380915050919050565b6000808411801561022f57506000548411155b61026e576040517f08c379a000000000000000000000000000000000000000000000000000000000815260040161026590610be0565b60405180910390fd5b6001600081548092919061028190610c2f565b91905055506040518060a00160405280600154815260200185815260200184815260200183815260200142815250600360006001548152602001908152602001600020600082015181600001556020820151816001015560408201518160020190816102ed9190610e83565b506060820151816003015560808201518160040155905050836001547ff77c5bbb4f441ca000a652e196f7a9af4bcd907fecc4e995bfb4cb9f5e98ed1885854260405161033c93929190610f55565b60405180910390a360015490509392505050565b600360205280600052604060002060009150905080600001549080600101549080600201805461037f90610ca6565b80601f01602080910402602001604051908101604052809291908181526020018280546103ab90610ca6565b80156103f85780601f106103cd576101008083540402835291602001916103f8565b820191906000526020600020905b8154815290600101906020018083116103db57829003601f168201915b5050505050908060030154908060040154905085565b600260205280600052604060002060009150905080600001549080600101805461043790610ca6565b80601f016020809104026020016040519081016040528092919081815260200182805461046390610ca6565b80156104b05780601f10610485576101008083540402835291602001916104b0565b820191906000526020600020905b81548152906001019060200180831161049357829003601f168201915b5050505050908060020180546104c590610ca6565b80601f01602080910402602001604051908101604052809291908181526020018280546104f190610ca6565b801561053e5780601f106105135761010080835404028352916020019161053e565b820191906000526020600020905b81548152906001019060200180831161052157829003601f168201915b50505050509080600301805461055390610ca6565b80601f016020809104026020016040519081016040528092919081815260200182805461057f90610ca6565b80156105cc5780601f106105a1576101008083540402835291602001916105cc565b820191906000526020600020905b8154815290600101906020018083116105af57829003601f168201915b5050505050908060040154905085565b60015481565b60008060008154809291906105f690610c2f565b91905055506040518060a0016040528060005481526020018581526020018481526020018381526020014281525060026000805481526020019081526020016000206000820151816000015560208201518160010190816106579190610e83565b50604082015181600201908161066d9190610e83565b5060608201518160030190816106839190610e83565b50608082015181600401559050506000547f3d8f13a7c0e582325a3c638fb955e59f9f0c9758bc7ee94c22a4638e23c0e7f8858585426040516106c99493929190610f93565b60405180910390a260005490509392505050565b6000819050919050565b6106f0816106dd565b82525050565b600060208201905061070b60008301846106e7565b92915050565b6000604051905090565b600080fd5b600080fd5b600080fd5b600080fd5b6000601f19601f8301169050919050565b7f4e487b7100000000000000000000000000000000000000000000000000000000600052604160045260246000fd5b6107788261072f565b810181811067ffffffffffffffff8211171561079757610796610740565b5b80604052505050565b60006107aa610711565b90506107b6828261076f565b919050565b600067ffffffffffffffff8211156107d6576107d5610740565b5b6107df8261072f565b9050602081019050919050565b82818337600083830152505050565b600061080e610809846107bb565b6107a0565b90508281526020810184848401111561082a5761082961072a565b5b6108358482856107ec565b509392505050565b600082601f83011261085257610851610725565b5b81356108628482602086016107fb565b91505092915050565b6000602082840312156108815761088061071b565b5b600082013567ffffffffffffffff81111561089f5761089e610720565b5b6108ab8482850161083d565b91505092915050565b6108bd816106dd565b81146108c857600080fd5b50565b6000813590506108da816108b4565b92915050565b6000806000606084860312156108f9576108f861071b565b5b6000610907868287016108cb565b935050602084013567ffffffffffffffff81111561092857610927610720565b5b6109348682870161083d565b9250506040610945868287016108cb565b9150509250925092565b6000602082840312156109655761096461071b565b5b6000610973848285016108cb565b91505092915050565b600081519050919050565b600082825260208201905092915050565b60005b838110156109b657808201518184015260208101905061099b565b60008484015250505050565b60006109cd8261097c565b6109d78185610987565b93506109e7818560208601610998565b6109f08161072f565b840191505092915050565b600060a082019050610a1060008301886106e7565b610a1d60208301876106e7565b8181036040830152610a2f81866109c2565b9050610a3e60608301856106e7565b610a4b60808301846106e7565b9695505050505050565b600060a082019050610a6a60008301886106e7565b8181036020830152610a7c81876109c2565b90508181036040830152610a9081866109c2565b90508181036060830152610aa481856109c2565b9050610ab360808301846106e7565b9695505050505050565b600080600060608486031215610ad657610ad561071b565b5b600084013567ffffffffffffffff811115610af457610af3610720565b5b610b008682870161083d565b935050602084013567ffffffffffffffff811115610b2157610b20610720565b5b610b2d8682870161083d565b925050604084013567ffffffffffffffff811115610b4e57610b4d610720565b5b610b5a8682870161083d565b9150509250925092565b60006040820190508181036000830152610b7e81856109c2565b9050610b8d60208301846106e7565b9392505050565b7f496e76616c6964206661726d0000000000000000000000000000000000000000600082015250565b6000610bca600c83610987565b9150610bd582610b94565b602082019050919050565b60006020820190508181036000830152610bf981610bbd565b9050919050565b7f4e487b7100000000000000000000000000000000000000000000000000000000600052601160045260246000fd5b6000610c3a826106dd565b91507fffffffffffffffffffffffffffffffffffffffffffffffffffffffffffffffff8203610c6c57610c6b610c00565b5b600182019050919050565b7f4e487b7100000000000000000000000000000000000000000000000000000000600052602260045260246000fd5b60006002820490506001821680610cbe57607f821691505b602082108103610cd157610cd0610c77565b5b50919050565b60008190508160005260206000209050919050565b60006020601f8301049050919050565b600082821b905092915050565b600060088302610d397fffffffffffffffffffffffffffffffffffffffffffffffffffffffffffffffff82610cfc565b610d438683610cfc565b95508019841693508086168417925050509392505050565b6000819050919050565b6000610d80610d7b610d76846106dd565b610d5b565b6106dd565b9050919050565b6000819050919050565b610d9a83610d65565b610dae610da682610d87565b848454610d09565b825550505050565b600090565b610dc3610db6565b610dce818484610d91565b505050565b5b81811015610df257610de7600082610dbb565b600181019050610dd4565b5050565b601f821115610e3757610e0881610cd7565b610e1184610cec565b81016020851015610e20578190505b610e34610e2c85610cec565b830182610dd3565b50505b505050565b600082821c905092915050565b6000610e5a60001984600802610e3c565b1980831691505092915050565b6000610e738383610e49565b9150826002028217905092915050565b610e8c8261097c565b67ffffffffffffffff811115610ea557610ea4610740565b5b610eaf8254610ca6565b610eba828285610df6565b600060209050601f831160018114610eed5760008415610edb578287015190505b610ee58582610e67565b865550610f4d565b601f198416610efb86610cd7565b60005b82811015610f2357848901518255600182019150602085019450602081019050610efe565b86831015610f405784890151610f3c601f891682610e49565b8355505b6001600288020188555050505b505050505050565b60006060820190508181036000830152610f6f81866109c2565b9050610f7e60208301856106e7565b610f8b60408301846106e7565b949350505050565b60006080820190508181036000830152610fad81876109c2565b90508181036020830152610fc181866109c2565b90508181036040830152610fd581856109c2565b9050610fe460608301846106e7565b9594505050505056fea2646970667358221220de8ee035d1d0478c34c3ec1097881fae5b459557cb36b0f13c200813198c7a5a64736f6c63430008130033",
  "immutableReferences": {},
  "source": "// SPDX-License-Identifier: MIT\npragma solidity ^0.8.0;\n\ncontract AgriManager {\n    struct Farm {\n        uint256 id;\n        string owner;\n        string name;\n        string location;\n        uint256 createdAt;\n    }\n\n    struct Crop {\n        uint256 id;\n        uint256 farmId;\n        string cropType;\n        uint256 quantity;\n        uint256 plantedAt;\n    }\n\n    uint256 public farmCount;\n    uint256 public cropCount;\n\n    mapping(uint256 => Farm) public farms;\n    mapping(uint256 => Crop) public crops;\n\n    event FarmAdded(uint256 indexed id, string owner, string name, string location, uint256 createdAt);\n    event CropAdded(uint256 indexed id, uint256 indexed farmId, string cropType, uint256 quantity, uint256 plantedAt);\n    event TransactionRecorded(uint256 indexed txId, address indexed by, string action, uint256 timestamp);\n\n    function addFarm(string memory _owner, string memory _name, string memory _location) public returns (uint256) {\n        farmCount++;\n        farms[farmCount] = Farm(farmCount, _owner, _name, _location, block.timestamp);\n        emit FarmAdded(farmCount, _owner, _name, _location, block.timestamp);\n        return farmCount;\n    }\n\n    function addCrop(uint256 _farmId, string memory _cropType, uint256 _quantity) public returns (uint256) {\n        require(_farmId > 0 && _farmId <= farmCount, \"Invalid farm\");\n        cropCount++;\n        crops[cropCount] = Crop(cropCount, _farmId, _cropType, _quantity, block.timestamp);\n        emit CropAdded(cropCount, _farmId, _cropType, _quantity, block.timestamp);\n        return cropCount;\n    }\n\n    // Record a simple textual transaction (e.g., \"Sold 10kg wheat to X\")\n    function recordTransaction(string memory action) public returns (uint256) {\n        uint256 txId = block.timestamp; // simple unique-ish id in example\n        emit TransactionRecorded(txId, msg.sender, action, block.timestamp);\n        return txId;\n    }\n}\n",
  "sourcePath": "D:\\Projects\\agrochain_project_mongo\\truffle\\contracts\\AgriManager.sol",
  "compiler": {
    "name": "solc",
    "version": "0.8.19+commit.7dd6d404.Emscripten.clang"
  },
  "schemaVersion": "3.4.16",
  "updatedAt": "2025-09-15T04:22:06.414Z",
  "networkType": "ethereum",
  "devdoc": {
    "kind": "dev",
    "methods": {},
    "version": 1
  },
  "userdoc": {
    "kind": "user",
    "methods": {},
    "version": 1
  }
}